{
  "_format": "hh-sol-artifact-1",
  "contractName": "Test",
  "sourceName": "contracts/test.sol",
  "abi": [
    {
      "inputs": [],
      "stateMutability": "nonpayable",
      "type": "constructor"
    },
    {
      "inputs": [
        {
          "internalType": "uint256",
          "name": "_num",
          "type": "uint256"
        }
      ],
      "name": "addNumber",
      "outputs": [],
      "stateMutability": "nonpayable",
      "type": "function"
    },
    {
      "inputs": [],
      "name": "getSum",
      "outputs": [
        {
          "internalType": "uint256",
          "name": "",
          "type": "uint256"
        }
      ],
      "stateMutability": "view",
      "type": "function"
    },
    {
      "inputs": [
        {
          "internalType": "uint256",
          "name": "",
          "type": "uint256"
        }
      ],
      "name": "numbers",
      "outputs": [
        {
          "internalType": "uint256",
          "name": "",
          "type": "uint256"
        }
      ],
      "stateMutability": "view",
      "type": "function"
    }
  ],
  "bytecode": "0x6080604052348015600f57600080fd5b506040518060a00160405280600160ff168152602001600260ff168152602001600360ff168152602001600460ff168152602001600560ff1681525060009060056059929190605e565b5060c6565b828054828255906000526020600020908101928215609c579160200282015b82811115609b578251829060ff16905591602001919060010190607d565b5b50905060a7919060ab565b5090565b5b8082111560c257600081600090555060010160ac565b5090565b6102b2806100d56000396000f3fe608060405234801561001057600080fd5b50600436106100415760003560e01c8063569c5f6d14610046578063d39fa23314610064578063fce6802314610094575b600080fd5b61004e6100b0565b60405161005b9190610171565b60405180910390f35b61007e600480360381019061007991906101bd565b610108565b60405161008b9190610171565b60405180910390f35b6100ae60048036038101906100a991906101bd565b61012c565b005b6000806000905060005b60008054905081101561010057600081815481106100db576100da6101ea565b5b9060005260206000200154826100f19190610248565b915080806001019150506100ba565b508091505090565b6000818154811061011857600080fd5b906000526020600020016000915090505481565b600081908060018154018082558091505060019003906000526020600020016000909190919091505550565b6000819050919050565b61016b81610158565b82525050565b60006020820190506101866000830184610162565b92915050565b600080fd5b61019a81610158565b81146101a557600080fd5b50565b6000813590506101b781610191565b92915050565b6000602082840312156101d3576101d261018c565b5b60006101e1848285016101a8565b91505092915050565b7f4e487b7100000000000000000000000000000000000000000000000000000000600052603260045260246000fd5b7f4e487b7100000000000000000000000000000000000000000000000000000000600052601160045260246000fd5b600061025382610158565b915061025e83610158565b925082820190508082111561027657610275610219565b5b9291505056fea2646970667358221220a2ed8bcb166ccacdd95e4930fa92bc9836e1092f99815ddd69a47158ae9d006364736f6c634300081c0033",
  "linkReferences": {},
  "deployedLinkReferences": {}
}