{
    "contractName": "MyCalculator",
    "abi": [
        {
            "inputs": [
                {
                    "internalType": "uint256",
                    "name": "a",
                    "type": "uint256"
                },
                {
                    "internalType": "uint256",
                    "name": "b",
                    "type": "uint256"
                }
            ],
            "name": "add",
            "outputs": [],
            "stateMutability": "nonpayable",
            "type": "function"
        },
        {
            "inputs": [
                {
                    "internalType": "uint256",
                    "name": "a",
                    "type": "uint256"
                },
                {
                    "internalType": "uint256",
                    "name": "b",
                    "type": "uint256"
                },
                {
                    "internalType": "string",
                    "name": "operation",
                    "type": "string"
                }
            ],
            "name": "calculate",
            "outputs": [],
            "stateMutability": "nonpayable",
            "type": "function"
        },
        {
            "inputs": [
                {
                    "internalType": "uint256",
                    "name": "a",
                    "type": "uint256"
                },
                {
                    "internalType": "uint256",
                    "name": "b",
                    "type": "uint256"
                }
            ],
            "name": "divide",
            "outputs": [],
            "stateMutability": "nonpayable",
            "type": "function"
        },
        {
            "inputs": [],
            "name": "lastResult",
            "outputs": [
                {
                    "internalType": "uint256",
                    "name": "",
                    "type": "uint256"
                }
            ],
            "stateMutability": "view",
            "type": "function"
        },
        {
            "inputs": [
                {
                    "internalType": "uint256",
                    "name": "a",
                    "type": "uint256"
                },
                {
                    "internalType": "uint256",
                    "name": "b",
                    "type": "uint256"
                }
            ],
            "name": "multiply",
            "outputs": [],
            "stateMutability": "nonpayable",
            "type": "function"
        },
        {
            "inputs": [
                {
                    "internalType": "uint256",
                    "name": "a",
                    "type": "uint256"
                },
                {
                    "internalType": "uint256",
                    "name": "b",
                    "type": "uint256"
                }
            ],
            "name": "subtract",
            "outputs": [],
            "stateMutability": "nonpayable",
            "type": "function"
        }
    ],
    "bytecode": "6080806040523460155761038d908161001a8239f35b5f80fdfe60806040526004361015610011575f80fd5b5f3560e01c8063165c4a161461025d5780633ef5e44514610246578063771602f71461022f578063abcc11d814610213578063d8e93acf146100855763f88e9fbf1461005b575f80fd5b346100815761007d61006c36610274565b906100788215156102ed565b610339565b5f55005b5f80fd5b346100815760603660031901126100815760043560243560443567ffffffffffffffff811161008157366023820112156100815780600401359067ffffffffffffffff82116101ff57604051916100e6601f8201601f19166020018461028a565b8083526020830191366024838301011161008157815f926024602093018537840101526101326020604051809382820195518091875e81015f838201520301601f19810183528261028a565b5190206040516020810190602b60f81b82526001815261015360218261028a565b5190208103610166575061007d916102e0565b6040516020810190602d60f81b82526001815261018460218261028a565b5190208103610197575061007d916102d3565b6040516020810190601560f91b8252600181526101b560218261028a565b51902081036101c8575061007d916102ac565b6040516020810190602f60f81b8252600181526101e660218261028a565b519020146101f057005b61007d916100788215156102ed565b634e487b7160e01b5f52604160045260245ffd5b34610081575f3660031901126100815760205f54604051908152f35b346100815761007d61024036610274565b906102e0565b346100815761007d61025736610274565b906102d3565b346100815761007d61026e36610274565b906102ac565b6040906003190112610081576004359060243590565b90601f8019910116810190811067ffffffffffffffff8211176101ff57604052565b818102929181159184041417156102bf57565b634e487b7160e01b5f52601160045260245ffd5b919082039182116102bf57565b919082018092116102bf57565b156102f457565b60405162461bcd60e51b815260206004820152601f60248201527f4469766973696f6e206279207a65726f206973206e6f7420616c6c6f776564006044820152606490fd5b8115610343570490565b634e487b7160e01b5f52601260045260245ffdfea2646970667358221220589ea7f87f4b5c9060de1e99ec580e6c2fc111c6aca6d91f041a2fa3bce054dc64736f6c634300081d0033",
    "sourcePath": "e:/Development/VSCode/VSCodeProjects/GoProject/src/code/GCC_2025/LearningCode/ProjectInClass/SmartContractDev/SimpleCalculator/contracts/Calculator.sol",
    "compiler": {
        "name": "solc",
        "version": "0.8.29+commit.ab55807c"
    },
    "functionHashes": {
        "add(uint256,uint256)": "771602f7",
        "calculate(uint256,uint256,string)": "d8e93acf",
        "divide(uint256,uint256)": "f88e9fbf",
        "lastResult()": "abcc11d8",
        "multiply(uint256,uint256)": "165c4a16",
        "subtract(uint256,uint256)": "3ef5e445"
    },
    "gasEstimates": {
        "creation": {
            "codeDepositCost": "181800",
            "executionCost": "233",
            "totalCost": "182033"
        },
        "external": {
            "add(uint256,uint256)": "22374",
            "calculate(uint256,uint256,string)": "infinite",
            "divide(uint256,uint256)": "22479",
            "lastResult()": "2313",
            "multiply(uint256,uint256)": "22352",
            "subtract(uint256,uint256)": "22352"
        }
    }
}